{
  "contractName": "Owner",
  "abi": [
    {
      "constant": false,
      "inputs": [],
      "name": "owned",
      "outputs": [],
      "payable": false,
      "stateMutability": "nonpayable",
      "type": "function"
    },
    {
      "constant": false,
      "inputs": [
        {
          "internalType": "address",
          "name": "forchange",
          "type": "address"
        }
      ],
      "name": "change_Owner",
      "outputs": [
        {
          "internalType": "bool",
          "name": "chk",
          "type": "bool"
        }
      ],
      "payable": false,
      "stateMutability": "nonpayable",
      "type": "function"
    },
    {
      "constant": true,
      "inputs": [],
      "name": "getowner",
      "outputs": [
        {
          "internalType": "address",
          "name": "current_owner",
          "type": "address"
        }
      ],
      "payable": false,
      "stateMutability": "view",
      "type": "function"
    }
  ],
  "bytecode": "0x608060405234801561001057600080fd5b5061023a806100206000396000f3fe608060405234801561001057600080fd5b50600436106100415760003560e01c80633924451f14610046578063df32754b146100a2578063fe0174bd146100ac575b600080fd5b6100886004803603602081101561005c57600080fd5b81019080803573ffffffffffffffffffffffffffffffffffffffff1690602001909291905050506100f6565b604051808215151515815260200191505060405180910390f35b6100aa61019a565b005b6100b46101dc565b604051808273ffffffffffffffffffffffffffffffffffffffff1673ffffffffffffffffffffffffffffffffffffffff16815260200191505060405180910390f35b60008060009054906101000a900473ffffffffffffffffffffffffffffffffffffffff1673ffffffffffffffffffffffffffffffffffffffff163373ffffffffffffffffffffffffffffffffffffffff161461015157600080fd5b816000806101000a81548173ffffffffffffffffffffffffffffffffffffffff021916908373ffffffffffffffffffffffffffffffffffffffff16021790555060019050919050565b336000806101000a81548173ffffffffffffffffffffffffffffffffffffffff021916908373ffffffffffffffffffffffffffffffffffffffff160217905550565b60008060009054906101000a900473ffffffffffffffffffffffffffffffffffffffff1690509056fea265627a7a72315820cb03e65c3f87f2e3214e12fe37c299ad71557addd9a55d4e97b0135babd091a764736f6c634300050c0032",
  "source": "pragma solidity ^0.5.11;\r\n\r\nlibrary SafeMath {\r\n  function mul(uint256 a, uint256 b) internal pure returns (uint256) {\r\n    if (a == 0) {\r\n      return 0;\r\n    }\r\n    uint256 c = a * b;\r\n    assert(c / a == b);\r\n    return c;\r\n  }\r\n\r\n  function div(uint256 a, uint256 b) internal pure returns (uint256) {\r\n    // assert(b > 0); // Solidity automatically throws when dividing by 0\r\n    uint256 c = a / b;\r\n    // assert(a == b * c + a % b); // There is no case in which this doesn't hold\r\n    return c;\r\n  }\r\n\r\n  function sub(uint256 a, uint256 b) internal pure returns (uint256) {\r\n    assert(b <= a);\r\n    return a - b;\r\n  }\r\n\r\n  function add(uint256 a, uint256 b) internal pure returns (uint256) {\r\n    uint256 c = a + b;\r\n    assert(c >= a);\r\n    return c;\r\n  }\r\n}\r\n\r\ncontract Owner {\r\n    \r\n    \r\n    address owner;\r\n    function owned() public { owner = msg.sender; }\r\n    modifier onlyOwner {\r\n        require(msg.sender == owner);\r\n        _;\r\n    }\r\n    // change owner address\r\n    function change_Owner(address forchange) public onlyOwner returns(bool chk) {\r\n        owner = forchange;\r\n        return (true);\r\n    }\r\n    // getter\r\n    function getowner() public view returns(address current_owner) {\r\n        return owner;\r\n    }\r\n    \r\n}\r\n\r\n\r\n// interface getter {\r\n    \r\n//     // function _get_blocknum() external view returns(uint256 blocknum);\r\n    \r\n//     function _get_virtual_account(uint256 _id) external view returns(\r\n//         address offer_address,\r\n//         uint256 cost,\r\n//         uint256 fee,\r\n//         uint256 cost_remain,\r\n//         uint256 time_remain,\r\n//         string memory middle_pk);\r\n        \r\n//     function _get_history(uint256 _id) external view returns(\r\n//         address[] memory history_address,\r\n//         uint256[] memory history_amount);\r\n        \r\n//     function _get_history_len(uint256 _id) external view returns(\r\n//         uint256 history_address_len,\r\n//         uint256 history_amount_len);\r\n        \r\n//     function _get_offer_address(uint256 _id) external view returns(\r\n//         address offer_address);\r\n    \r\n//     function _get_payer_address(uint256 _id) external view returns(\r\n//         address payer_address);\r\n        \r\n//     function _get_cost(uint256 _id) external view returns(\r\n//         uint256 cost);\r\n    \r\n//     function _get_fee(uint256 _id) external view returns(\r\n//         uint256 fee);\r\n    \r\n//     function _get_remain(uint256 _id) external view returns(\r\n//         uint256 remain);\r\n        \r\n//     function _get_time_start(uint256 _id) external view returns(\r\n//         uint256 time_start);\r\n        \r\n//     function _get_time_end(uint256 _id) external view returns(\r\n//         uint256 time_end);\r\n        \r\n//     function _get_time_length(uint256 _id) external view returns(\r\n//         uint256 time_length);\r\n        \r\n//     function _get_escrow_address(uint256 _id) external view returns(\r\n//         address escrow_address);\r\n        \r\n//     function _get_escrow_pk(uint256 _id) external view returns(\r\n//         string memory escrow_pk);\r\n        \r\n//     function _get_url(uint256 _id) external view returns(\r\n//         string memory url);\r\n        \r\n//     function _get_state(uint256 _id) external view returns(\r\n//         uint256 state);\r\n    \r\n    \r\n// }\r\n\r\n// interface setter {\r\n    \r\n    \r\n//     function _set_virtual_account(\r\n//     uint256 _id,\r\n//     address _offer_address,\r\n//     uint256 _cost,\r\n//     uint256 _fee,\r\n//     uint256 _time_length,\r\n//     address _escrow_address,\r\n//     string calldata _escrow_pk) external returns(uint256 state);\r\n        \r\n//     /////////////////////////////////////////////////////////////////////////////\r\n    \r\n//     function _set_history(uint256 _id, address _history_address, uint256 _history_amount) external  returns(\r\n//         uint256 history_address_lenght,\r\n//         uint256 history_amount_length\r\n//         );\r\n        \r\n//     function _set_offer_address(uint256 _id, address _offer_address) external  returns(\r\n//         address offer_address);\r\n    \r\n//     function _set_payer_address(uint256 _id, address _payer_address) external  returns(\r\n//         address payer_address);\r\n        \r\n//     function _set_cost(uint256 _id, uint256 _cost) external  returns(\r\n//         uint256 cost);\r\n    \r\n//     function _set_fee(uint256 _id, uint256 _fee) external  returns(\r\n//         uint256 fee);\r\n    \r\n//     function _set_remain(uint256 _id, uint256 _remain) external  returns(\r\n//         uint256 remain);\r\n    \r\n//     function _set_remain_plus(uint256 _id, uint256 _remain) external  returns(\r\n//         uint256 remain);\r\n        \r\n//     function _set_escrow_address(uint256 _id, uint256 _escrow_address) external  returns(\r\n//         address escrow_address);\r\n        \r\n//     function _set_escrow_pk(uint256 _id, uint256 _escrow_pk) external  returns(\r\n//         string memory escrow_pk);\r\n        \r\n//     function _set_url(uint256 _id, string calldata _url) external  returns(\r\n//         string memory url);\r\n        \r\n//     function _set_state(uint256 _id,uint256 _state) external returns(\r\n//         uint256 state);\r\n    \r\n    \r\n// }\r\n\r\n// interface verify {\r\n    \r\n//     function _chk_verify_bycost(uint256 _id) external view returns(\r\n//         bool _verify);\r\n        \r\n//     function _chk_verify_bytime(uint256 _id) external view returns(\r\n//         bool _verify);\r\n        \r\n//     function _chk_verify(uint256 _id) external view returns(\r\n//         bool _verify);\r\n    \r\n    \r\n//     //\r\n    \r\n//     function _set_verify_bycost(uint256 _id) external returns(\r\n//         bool chk,\r\n//         uint256 state);\r\n    \r\n//     function _set_verify_bytime(uint256 _id) external returns(\r\n//         bool chk,\r\n//         uint256 state);\r\n        \r\n//     function _set_verify(uint256 _id) external returns(\r\n//         bool chk,\r\n//         uint256 state);\r\n        \r\n    \r\n    \r\n    \r\n// }\r\n\r\ncontract TransactionData is Owner{\r\n    \r\n    using SafeMath for uint;\r\n\r\nstruct Contractinfo {\r\n        \r\n        uint256 state;\r\n        // address infomation\r\n        address offer_address;\r\n        address payer_address;\r\n        // cost information\r\n        uint256 cost;\r\n        uint256 fee;\r\n        uint256 remain;\r\n        // time information\r\n        uint256 time_start;\r\n        uint256 time_length;\r\n        // export information\r\n        string url;\r\n        // hub account information\r\n        address middle_address;\r\n        string middle_pk;\r\n        // history information\r\n        address[] history_address;\r\n        uint256[] histroy_amount;\r\n        \r\n    }\r\n    \r\n    mapping(uint256=>Contractinfo) public Cinfo;\r\n    \r\n// getter    \r\n\r\n    function _get_virtual_account(uint256 _id) view public  returns(\r\n        address offer_address,\r\n        uint256 cost,\r\n        uint256 fee,\r\n        uint256 cost_remain,\r\n        uint256 time_remain,\r\n        string memory middle_pk){\r\n            \r\n            return(\r\n                Cinfo[_id].offer_address,\r\n                Cinfo[_id].cost,\r\n                Cinfo[_id].fee,\r\n                Cinfo[_id].remain,\r\n                block.number-(Cinfo[_id].time_start+Cinfo[_id].time_length),\r\n                Cinfo[_id].middle_pk\r\n                );\r\n        }\r\n\r\n\r\n        \r\n    function _get_history(uint256 _id) view public  returns(\r\n        address[] memory history_address,\r\n        uint256[] memory history_amount){\r\n            \r\n            return(\r\n                Cinfo[_id].history_address,\r\n                Cinfo[_id].histroy_amount\r\n                );\r\n        }\r\n        \r\n        \r\n    function _get_history_len(uint256 _id) view public  returns(\r\n        uint256 history_address_len,\r\n        uint256 history_amount_len){\r\n            \r\n            return(\r\n                Cinfo[_id].history_address.length,\r\n                Cinfo[_id].histroy_amount.length\r\n                );\r\n            \r\n        }\r\n        \r\n    function _get_offer_address(uint256 _id) view public  returns(\r\n        address offer_address){\r\n            return(\r\n                Cinfo[_id].offer_address\r\n                );\r\n        }\r\n    \r\n    function _get_payer_address(uint256 _id) view public  returns(\r\n        address payer_address){\r\n            return(\r\n                Cinfo[_id].payer_address\r\n                );\r\n        }\r\n        \r\n    function _get_cost(uint256 _id) view public  returns(\r\n        uint256 cost){\r\n            return(\r\n                Cinfo[_id].cost\r\n                );\r\n        }\r\n    \r\n    function _get_fee(uint256 _id) view public  returns(\r\n        uint256 fee){\r\n            return(\r\n                Cinfo[_id].fee\r\n                );\r\n        }\r\n    \r\n    function _get_remain(uint256 _id) view public  returns(\r\n        uint256 remain){\r\n            return(\r\n                Cinfo[_id].remain\r\n                );\r\n        }\r\n        \r\n    function _get_time_start(uint256 _id) view public  returns(\r\n        uint256 time_start){\r\n            return(\r\n                Cinfo[_id].time_start\r\n                );\r\n        }\r\n        \r\n    function _get_time_end(uint256 _id) view public  returns(\r\n        uint256 time_end){\r\n            return(\r\n                Cinfo[_id].time_start+Cinfo[_id].time_length\r\n                );\r\n        }\r\n        \r\n    function _get_time_length(uint256 _id) view public  returns(\r\n        uint256 time_length){\r\n            return(\r\n                Cinfo[_id].time_length\r\n                );\r\n        }\r\n        \r\n    function _get_escrow_address(uint256 _id) view public  returns(\r\n        address escrow_address){\r\n            return(\r\n                Cinfo[_id].middle_address\r\n                );\r\n        }\r\n        \r\n    function _get_escrow_pk(uint256 _id) view public  returns(\r\n        string memory escrow_pk){\r\n            return(\r\n                Cinfo[_id].middle_pk\r\n                );\r\n        }\r\n        \r\n    function _get_url(uint256 _id) view public  returns(\r\n        string memory url){\r\n            return(\r\n                Cinfo[_id].url\r\n                );\r\n        }\r\n        \r\n    function _get_state(uint256 _id) view public  returns(\r\n        uint256 state){\r\n            return(\r\n                Cinfo[_id].state\r\n                );\r\n        }\r\n        \r\n// setter    \r\n    \r\n    function _set_virtual_account(\r\n    uint256 _id,\r\n    address _offer_address,\r\n    uint256 _cost,\r\n    uint256 _fee,\r\n    uint256 _time_length,\r\n    address _escrow_address,\r\n    string memory _escrow_pk) public onlyOwner returns(uint256 state){\r\n        \r\n        Cinfo[_id].state = 0;\r\n        \r\n        Cinfo[_id].offer_address = _offer_address;\r\n        Cinfo[_id].cost = _cost;\r\n        Cinfo[_id].fee = _fee;\r\n        Cinfo[_id].remain = 0;\r\n        \r\n        require(!(_time_length<=0), \"err_timelength below zero\");\r\n        Cinfo[_id].time_start = block.number;\r\n        Cinfo[_id].time_length = _time_length;\r\n        \r\n        \r\n        Cinfo[_id].url = \"\";\r\n        Cinfo[_id].middle_address = _escrow_address;\r\n        Cinfo[_id].middle_pk = _escrow_pk;\r\n        \r\n        Cinfo[_id].state = 1;\r\n        \r\n        return(\r\n            Cinfo[_id].state\r\n            );\r\n        \r\n    }\r\n        \r\n    \r\n    function _set_history(uint256 _id, address _history_address, uint256 _history_amount) public onlyOwner returns(\r\n        uint256 history_address_lenght,\r\n        uint256 history_amount_length\r\n        ){\r\n            \r\n            Cinfo[_id].history_address.push(_history_address);\r\n            Cinfo[_id].histroy_amount.push(_history_amount);\r\n            \r\n            return(\r\n                Cinfo[_id].history_address.length,\r\n                Cinfo[_id].histroy_amount.length\r\n                );\r\n        }\r\n        \r\n    function _set_offer_address(uint256 _id, address _offer_address) public onlyOwner returns(\r\n        address offer_address){\r\n            \r\n            Cinfo[_id].offer_address = _offer_address;\r\n            \r\n            return(\r\n                Cinfo[_id].offer_address\r\n                );\r\n        }\r\n    \r\n    function _set_payer_address(uint256 _id, address _payer_address) public onlyOwner returns(\r\n        address payer_address){\r\n            \r\n            Cinfo[_id].payer_address = _payer_address;\r\n            \r\n            return(\r\n                Cinfo[_id].payer_address\r\n                );\r\n        }\r\n        \r\n    function _set_cost(uint256 _id, uint256 _cost)public onlyOwner returns(\r\n        uint256 cost){\r\n            Cinfo[_id].cost = _cost;\r\n            \r\n            return(\r\n                Cinfo[_id].cost\r\n                );\r\n        }\r\n    \r\n    function _set_fee(uint256 _id, uint256 _fee) public onlyOwner returns(\r\n        uint256 fee){\r\n            \r\n            Cinfo[_id].fee = _fee;\r\n            \r\n            return(\r\n                Cinfo[_id].fee\r\n                );\r\n        }\r\n    \r\n    function _set_remain(uint256 _id, uint256 _remain) public onlyOwner returns(\r\n        uint256 remain){\r\n            \r\n            Cinfo[_id].remain = _remain;\r\n            \r\n            return(\r\n                Cinfo[_id].remain\r\n                );\r\n        }\r\n        \r\n    function _set_remain_plus(uint256 _id, uint256 _remain)public onlyOwner returns(\r\n        uint256 remain){\r\n            \r\n            Cinfo[_id].remain += _remain;\r\n            \r\n            return(\r\n                Cinfo[_id].remain\r\n                );\r\n        }\r\n        \r\n        \r\n    function _set_escrow_address(uint256 _id, address _escrow_address) public onlyOwner returns(\r\n        address escrow_address){\r\n            \r\n            Cinfo[_id].middle_address = _escrow_address;\r\n            \r\n            return(\r\n                Cinfo[_id].middle_address\r\n                );\r\n        }\r\n        \r\n    function _set_escrow_pk(uint256 _id, string memory _escrow_pk) public onlyOwner returns(\r\n        string memory escrow_pk){\r\n            \r\n            Cinfo[_id].middle_pk = _escrow_pk;\r\n            \r\n            return(\r\n                Cinfo[_id].middle_pk\r\n                );\r\n        }\r\n        \r\n    function _set_url(uint256 _id, string memory _url) public onlyOwner returns(\r\n        string memory url){\r\n            \r\n            Cinfo[_id].url = _url;\r\n            \r\n            return(\r\n                Cinfo[_id].url\r\n                );\r\n        }\r\n        \r\n    // TO MANAGE ONLY\r\n    function _set_state(uint256 _id,uint256 _state) public onlyOwner returns(\r\n        uint256 state){\r\n            \r\n            Cinfo[_id].state = _state;\r\n            \r\n            return(\r\n                Cinfo[_id].state\r\n                );\r\n            \r\n        }\r\n\r\n// verify\r\n\r\n    function _chk_verify_bycost(uint256 _id) public view returns(\r\n        bool _verify){\r\n            \r\n            if(Cinfo[_id].cost > Cinfo[_id].remain){\r\n                \r\n                return(true);\r\n            }else{\r\n\r\n                return(false);  \r\n            }\r\n            \r\n\r\n        }\r\n        \r\n    function _chk_verify_bytime(uint256 _id) public view returns(\r\n        bool _verify){\r\n            \r\n            if(Cinfo[_id].time_start+Cinfo[_id].time_length > block.number){\r\n                return(true);\r\n            }else{\r\n                return(false);\r\n        }\r\n            }\r\n            \r\n            \r\n        \r\n    function _chk_verify(uint256 _id) external view returns(\r\n        bool _verify){\r\n            \r\n            if(_chk_verify_bycost(_id)==true && _chk_verify_bytime(_id)==true){\r\n                \r\n                return(true);\r\n            }else{\r\n                return(false);\r\n            }\r\n            \r\n        }\r\n    \r\n    \r\n    //\r\n    \r\n    function _set_verify_bycost(uint256 _id) public onlyOwner returns(\r\n        bool chk,\r\n        uint256 state){\r\n            \r\n            bool chked = _chk_verify_bycost(_id);\r\n            \r\n            if(!chked){\r\n                if(Cinfo[_id].state==1){\r\n                    Cinfo[_id].state =2;\r\n                }\r\n            }\r\n            \r\n            return(chked, Cinfo[_id].state);\r\n            \r\n        }\r\n    \r\n    function _set_verify_bytime(uint256 _id) public onlyOwner returns(\r\n        bool chk,\r\n        uint256 state){\r\n\r\n            bool chked = _chk_verify_bytime(_id);\r\n            \r\n            if(!chked){\r\n                if(Cinfo[_id].state==1){\r\n                    Cinfo[_id].state =2;\r\n                }\r\n            }\r\n            \r\n            return(chked, Cinfo[_id].state);\r\n            \r\n            \r\n        }\r\n        \r\n    function _set_verify(uint256 _id) public onlyOwner returns(\r\n        bool chk,\r\n        uint256 state){\r\n            \r\n            \r\n            bool chked = _chk_verify_bytime(_id) && _chk_verify_bycost(_id);\r\n\r\n            if(chked){\r\n                if(Cinfo[_id].state==1){\r\n                    Cinfo[_id].state =2;\r\n                }\r\n            }\r\n            \r\n            return(chked, Cinfo[_id].state);            \r\n            \r\n        }\r\n        \r\n\r\n}\r\n\r\n\r\n\r\n// // for klayment auto and manage (delegatecall system)\r\n// contract Klayment is TransactionData {\r\n//     // chk Overflow & Underflow;\r\n//     using SafeMath for uint;\r\n    \r\n    \r\n\r\n   \r\n//   function get_balance_byaddress (address _address) public view returns(uint256 _balance){\r\n       \r\n//         return ((_address).balance);\r\n//   }\r\n   \r\n   \r\n   \r\n//   // TO DO assembly\r\n//   // https://solidity.readthedocs.io/en/v0.4.25/assembly.html\r\n   \r\n// //     uint256[] taskqueue;\r\n// //     uint256[] taskqueue_state;\r\n\r\n// //   function task_enqeue(uint256 _id)public onlyOwner returns(uint256 task_len){\r\n       \r\n// //       taskqueue.push(_id);\r\n       \r\n// //       return(\r\n// //           taskqueue.length\r\n// //           );\r\n// //   }   \r\n   \r\n//     // function task_replace(uint256 _index, uint256 _id)public onlyOwner returns(uint256 )\r\n   \r\n// //     function queue_length{\r\n// //       mod(len,3) random select <limimt 100 for gas\r\n// //     }\r\n   \r\n// //   function running_queue{\r\n// //       running\r\n// //   }\r\n    \r\n// }\r\n\r\n\r\n",
  "sourcePath": "E:/ETH_DEV/ETH_TOKEN/eth_token_mangement/addition-game-starter_2/contracts/TransactionData.sol",
  "compiler": {
    "name": "solc",
    "version": "0.5.12+commit.7709ece9.Emscripten.clang"
  },
  "schemaVersion": "3.0.18",
  "updatedAt": "2019-12-29T18:17:35.109Z",
  "devdoc": {
    "methods": {}
  },
  "userdoc": {
    "methods": {}
  }
}